:100000000C9446000C9465000C9465000C946500FB
:100010000C9465000C9487020C94F8020C9467030E
:100020000C94D6030C9465000C9465000C94650048
:100030000C9465000C9465000C9465000C94B00061
:100040000C94A6000C9465000C9465000C9465005B
:100050000C9465000C9465000C9465000C9465008C
:100060000C9465000C9465000C9465000C9465007C
:100070000C9465000C9465000C9465000C9465006C
:100080000C9465000C9465000C94650011241FBE4F
:10009000CFEFD0E1DEBFCDBF11E0A0E0B1E0E0EAFC
:1000A000F8E000E00BBF02C007900D92A436B10744
:1000B000D9F711E0A4E6B1E001C01D92AF36B10757
:1000C000E1F70E9414020C944E040C940000582F87
:1000D00080E0543008F081E090E0663008F091E074
:1000E000892B90E020E030E0443010F021E030E057
:1000F000822B932B892B41F513BE87B78E7F87BF49
:10010000513051F0513028F0523059F05330E1F471
:100110000CC0C69A83B70DC04130B1F083B780647C
:1001200008C0C69A83B7886004C0413069F083B7BD
:10013000816483BF83B74295407F842B83BF83B79D
:10014000862B83BF81E0089580E008951F920F926F
:100150000FB60F9211240F900FBE0F901F9018959D
:100160001F920F920FB60F9211240F900FBE0F9097
:100170001F901895662311F0A89A01C0A898A99815
:10018000A49AA59AA69AA79AAF98AE98AD98AC985B
:1001900087FDAF9A86FDAE9A85FDAD9A84FDAC9A37
:1001A000AA9A00C0AA98AF98AE98AD98AC9883FD73
:1001B000AF9A82FDAE9A81FDAD9A80FDAC9AAA9A63
:1001C00000C0AA98AC9AAD9AAE9AAF9A08958823C7
:1001D00011F0A89A01C0A898A99AA498A598A698E1
:1001E000A798AA9A00C09C9B02C080E101C080E051
:1001F0009D9980629E9980649F998068AA9800C0AA
:10020000AA9A00C09C9981609D9982609E998460A1
:100210009F998860AA98089580E00E94E70087FD72
:10022000FBCF84E090E00197F1F780E00E94E700C7
:1002300008951F93182F0E940C01812F60E00E94E7
:10024000BA001F9108951F93182F0E940C01812F4F
:1002500061E00E94BA001F910895662311F480584E
:1002600001C080540E94190108950E940C0190E081
:10027000089581E00E941901089582E00E94190109
:1002800008951F93182F0E940C011A3049F48034EE
:1002900010F080E001C080E480580E94190104C081
:1002A000812F61E00E94BA001F910895CF93DF93E0
:1002B000EC0102C00E94410189918823D9F7DF91A6
:1002C000CF910895CF93DF93EC0102C00E944101CA
:1002D000FE01219684918823C9F7DF91CF9108957B
:1002E0001F93182FA09AA19AA29AA49AA59AA69AA7
:1002F000A79A80E09DE70197F1F7AD9AAC9AAA9A88
:1003000000C0AA9880E097E20197F1F7AA9A00C08E
:10031000AA9880E890E0FC013197F1F7AA9A00C012
:10032000AA98FC013197F1F7AC98AA9A00C0AA9854
:100330000197F1F788E20E94190188E00E941901F3
:100340000E94390186E00E941901812F0E94190143
:100350001F910895882371F482B38F6082BB9098B7
:100360008CE00E94700180E060E00E942D0180E03E
:1003700091E00FC0813081F482B38F6082BB91988D
:100380008CE00E94700180E060E00E942D0187E116
:1003900091E00E94560117C0823029F592988CE0B6
:1003A0000E94700180E060E00E942D0188E291E0EF
:1003B0000E9456018DE060E00E942D01809167014E
:1003C000805D0E94410180E061E00E942D018EE08D
:1003D00091E00E94560188E061E00E942D0189E0D1
:1003E0008093680108958330F1F482B38F6082BBFB
:1003F00093988CE00E94700180E060E00E942D01E3
:1004000084E391E00E94560180E064E00E942D01A7
:1004100083E491E00E94560188E061E00E942D0192
:1004200089E08093680108958FE081BB82B98FEFE6
:1004300083B989B7806F89BF8AB782608ABF8AB75C
:100440008E7F8ABF8AB788608ABF8AB78B7F8ABF50
:100450008AB780628ABF8AB78F7E8ABF8AB7806870
:100460008ABF8AB78F7B8ABF1092650180E00E94A5
:10047000AA01789420915C0140E25EE4822F8F70A3
:10048000809583B9220F203109F421E0CA01019738
:10049000F1F7F4CF809168018F5F809368018150FC
:1004A00061E00E942D018CE491E00E94560189E6F2
:1004B00091E067E571E00E9445040097A9F48091FE
:1004C0006501882319F0813009F504C081E080932B
:1004D000650103C01092650180E00E94AA0110929C
:1004E0006601109267010895809167018F5F809384
:1004F0006701833030F083E0809365010E94AA0198
:10050000FFCF82E00E94AA011092660108951F9217
:100510000F920FB60F920BB60F9211242F933F93A9
:100520004F935F936F937F938F939F93AF93BF93FB
:10053000EF93FF9381B18F70873039F4E0916601BA
:10054000F0E0E759FE4F10823CC081E08BBB81B1E7
:100550008F708E3039F4E0916601F0E0E759FE4F7C
:1005600087E3808381B18F708D3039F4E09166012B
:10057000F0E0E759FE4F84E3808381B18F708B30C8
:1005800039F4E0916601F0E0E759FE4F81E38083A2
:100590008091680161E00E942D01E0916601F0E028
:1005A000E759FE4F80810E944101909166019F5F53
:1005B00090936601809168018F5F80936801953008
:1005C00010F00E944A020C9BFECFFF91EF91BF9169
:1005D000AF919F918F917F916F915F914F913F91DB
:1005E0002F910F900BBE0F900FBE0F901F9018957C
:1005F0001F920F920FB60F920BB60F9211242F93EA
:100600003F934F935F936F937F938F939F93AF939A
:10061000BF93EF93FF9381B18F708E3039F4E091E7
:100620006601F0E0E759FE4F88E3808381B18F7067
:100630008D3039F4E0916601F0E0E759FE4F85E333
:10064000808381B18F708B3039F4E0916601F0E0E6
:10065000E759FE4F82E3808381B18F70873039F490
:10066000E0916601F0E0E759FE4F80E380838091DE
:10067000680161E00E942D01E0916601F0E0E75918
:10068000FE4F80810E944101809168018F5F8093BD
:100690006801809166018F5F80936601853010F05C
:1006A0000E944A020D9BFECFFF91EF91BF91AF9147
:1006B0009F918F917F916F915F914F913F912F917A
:1006C0000F900BBE0F900FBE0F901F9018951F92AA
:1006D0000F920FB60F920BB60F9211242F933F93E8
:1006E0004F935F936F937F938F939F93AF93BF933A
:1006F000EF93FF9381B18F708E3039F4E0916601F2
:10070000F0E0E759FE4F89E3808381B18F708B3031
:1007100039F4E0916601F0E0E759FE4F83E380830E
:1007200081B18F708D3039F4E0916601F0E0E759C6
:10073000FE4F86E3808381B18F70873039F4E0917A
:100740006601F0E0E759FE4F8DE3808380916801F8
:1007500061E00E942D01E0916601F0E0E759FE4F53
:1007600080810E944101809168018F5F80936801C0
:10077000809166018F5F80936601853010F00E9442
:100780004A020E9BFECFFF91EF91BF91AF919F91D7
:100790008F917F916F915F914F913F912F910F902A
:1007A0000BBE0F900FBE0F901F9018951F920F92C7
:1007B0000FB60F920BB60F9211242F933F934F93C6
:1007C0005F936F937F938F939F93AF93BF93EF93B9
:1007D000FF9381B18F708E3039F4E0916601F0E0C3
:1007E000E759FE4F8FE2808381B18F708D3039F4ED
:1007F000E0916601F0E0E759FE4F88E7808381B120
:100800008F708B3039F4E0916601F0E0E759FE4FCC
:100810008DE2808381B18F70873039F4E091660179
:10082000F0E0E759FE4F8BE280838091680161E040
:100830000E942D01E0916601F0E0E759FE4F8081B2
:100840000E944101809168018F5F809368018091CF
:1008500066018F5F80936601853010F00E944A0226
:100860000F9BFECFFF91EF91BF91AF919F918F9121
:100870007F916F915F914F913F912F910F900BBEA0
:100880000F900FBE0F901F901895FB01DC018D910A
:10089000019080190110D9F3990B0895F894FFCFB6
:1008A0004D4F444F20414C41524D41444F00434F26
:1008B0004449474F3A20004D4F444F20444553414F
:1008C0004C41524D41444F00434F44204552524FFA
:1008D0004E454F005349535420424C4F51554541CA
:1008E000444F005245534554454152002E2E2E2E62
:1008F0002E2E2E2E2E2E00323032300001DF04310B
:040900003234370056
:00000001FF
