:100000000C9446000C9465000C9465000C946500FB
:100010000C9465000C9446010C94A4010C9401020C
:100020000C945E020C9465000C9465000C946500C1
:100030000C9465000C9465000C9465000C94B00061
:100040000C94A6000C9465000C9465000C9465005B
:100050000C9465000C9465000C9465000C9465008C
:100060000C9465000C9465000C9465000C9465007C
:100070000C9465000C9465000C9465000C9465006C
:100080000C9465000C9465000C94650011241FBE4F
:10009000CFEFD0E1DEBFCDBF11E0A0E0B1E0ECE8F2
:1000A000F5E000E00BBF02C007900D92A430B1074D
:1000B000D9F711E0A4E0B1E001C01D92AE30B10764
:1000C000E1F70E94D3000C94C4020C940000582F56
:1000D00080E0543008F081E090E0663008F091E074
:1000E000892B90E020E030E0443010F021E030E057
:1000F000822B932B892B41F513BE87B78E7F87BF49
:10010000513051F0513028F0523059F05330E1F471
:100110000CC0C69A83B70DC04130B1F083B780647C
:1001200008C0C69A83B7886004C0413069F083B7BD
:10013000816483BF83B74295407F842B83BF83B79D
:10014000862B83BF81E0089580E008951F920F926F
:100150000FB60F9211240F900FBE0F901F9018959D
:100160001F920F920FB60F9211240F900FBE0F9097
:100170001F901895882329F483B18F6083B918984C
:100180000895813029F483B18F6083B91998089557
:10019000823011F41A980895833021F483B18F606E
:1001A00083B91B98089590EF91BB80E182BB81E0F9
:1001B0008ABB8BBB8FEF809364008093610082B118
:1001C0008F6082B993B989B7806F89BF8AB782601F
:1001D0008ABF8AB78E7F8ABF8AB788608ABF8AB78C
:1001E0008B7F8ABF8AB780628ABF8AB78F7E8ABFB9
:1001F0008AB780688ABF8AB78F7B8ABF1092050151
:1002000080E00E94BA00789420910C0140E25EE404
:10021000822F809582BB220F09F420E1CA01019749
:10022000F1F7F6CF88E091E060E071E00E94BB0258
:100230000097B9F480910501882319F0813029F5E0
:1002400004C081E08093050103C01092050180E0A5
:100250000E94BA00109206011092070110926500E8
:100260000895809107018F5F809307018093650057
:10027000833030F083E0809305010E94BA00FFCF05
:1002800082E00E94BA001092060108951F920F9218
:100290000FB60F920BB60F9211242F933F934F93EB
:1002A0005F936F937F938F939F93AF93BF93EF93DE
:1002B000FF9380B38F3741F41BBAE0910601F0E061
:1002C000E85FFE4F108229C081E08BBB80B38F3E78
:1002D00039F4E0910601F0E0E85FFE4F87E38083A8
:1002E00080B38F3D39F4E0910601F0E0E85FFE4F06
:1002F00084E3808380B38F3B39F4E0910601F0E022
:10030000E85FFE4F81E38083809106018F5F8093D9
:10031000060180936200853010F00E9412010C9B50
:10032000FECFFF91EF91BF91AF919F918F917F9100
:100330006F915F914F913F912F910F900BBE0F9056
:100340000FBE0F901F9018951F920F920FB60F922D
:100350000BB60F9211242F933F934F935F936F939C
:100360007F938F939F93AF93BF93EF93FF9380B34C
:100370008F3E39F4E0910601F0E0E85FFE4F88E33C
:10038000808380B38F3D39F4E0910601F0E0E85FAF
:10039000FE4F85E3808380B38F3B39F4E091060103
:1003A000F0E0E85FFE4F82E3808380B38F3739F45B
:1003B000E0910601F0E0E85FFE4F80E380838091EA
:1003C00006018F5F8093060180936200853010F0F4
:1003D0000E94120181E08BBB0D9BFECFFF91EF913C
:1003E000BF91AF919F918F917F916F915F914F914D
:1003F0003F912F910F900BBE0F900FBE0F901F904B
:1004000018951F920F920FB60F920BB60F921124F0
:100410002F933F934F935F936F937F938F939F930C
:10042000AF93BF93EF93FF9380B38F3E39F4E09186
:100430000601F0E0E85FFE4F89E3808380B38F3DE3
:1004400039F4E0910601F0E0E85FFE4F86E3808337
:1004500080B38F3B39F4E0910601F0E0E85FFE4F96
:1004600083E3808380B38F3739F4E0910601F0E0B5
:10047000E85FFE4F8DE38083809106018F5F80935C
:10048000060180936200853010F00E94120181E025
:100490008BBB0E9BFECFFF91EF91BF91AF919F91D0
:1004A0008F917F916F915F914F913F912F910F901D
:1004B0000BBE0F900FBE0F901F9018951F920F92BA
:1004C0000FB60F920BB60F9211242F933F934F93B9
:1004D0005F936F937F938F939F93AF93BF93EF93AC
:1004E000FF9382B38F3E39F4E0910601F0E0E85FBC
:1004F000FE4F8FE2808382B38F3D39F4E091060195
:10050000F0E0E85FFE4F88E7808382B38F3B39F4E9
:10051000E0910601F0E0E85FFE4F8DE2808382B358
:100520008F3739F4E0910601F0E0E85FFE4F8BE28F
:100530008083809106018F5F809306018093620023
:10054000853010F00E94120181E08BBB0F9BFECF23
:10055000FF91EF91BF91AF919F918F917F916F919B
:100560005F914F913F912F910F900BBE0F900FBE57
:100570000F901F901895FB01DC018D91019080195F
:0C0580000110D9F3990B0895F894FFCFF7
:04058C0032303230A7
:00000001FF
